:1000000006040400000000000000000000000000E2
:1000100000000000000000000000000000000000E0
:1000200000000000000000000000000000000000D0
:1000300000000000000000000000000000000000C0
:1000400000000000000000000000000000000000B0
:10080C006F822000F0FF200020A0B7000000200025
:10081C0034A0B700400020004420B7005A04020066
:10082C00000000008A1F78008B1F7800CBE2A90023
:10083C00C9E2A8000A5822000B0020006FFF070035
:10084C00CBE2AE0003003700BA8020005AFF07004D
:10085C00020037000A80200057FF0700F8FF37001E
:0C086C00CF0578004F057800FFFF370033
:100608000800FA00A026200010418800F0FF2F0003
:1006180000418800F0FF2F00F0408800F0FF2F0015
:10062800204188002022EF000000280022A2B70005
:100638002062A900DCFF07000001BE00803E200008
:100648000100200098FF07000001BE00D9FF070045
:100658004100DE0064004000800078006000470030
:100668000A88BE008100E900030035001018D00098
:100678001090D200FBFF3700829FBE008A9FBE0009
:100688000200BE000E0190009E0190000002EB00E7
:1006980059FF07004F05BE004F01BE002007980014
:1006A800310798008A9FBE000200BE000E0190002C
:1006B8009E0190000002EB008BFF07004F05BE0073
:1006C8008001780001027800600047005001D100E5
:1006D800C080D300640047003008E1002090E100AA
:1006E8000700310061804100E0004A008002780084
:1006F80001037800050178008601780002003700C0
:1007080003017800840178000280710033003A0008
:10071800A5FF07000001BE00803E20000100200068
:1007280061FF07000001BE00A2FF07004100DE00D4
:1007380000A0EC0080007800600047000A88BE0036
:100748008100E900030035001018D0001090D20095
:10075800FBFF3700829FBE000200BE000E01900022
:100768009E0190000002EB0023FF07004F01BE002E
:1007780020079800310798000200BE000E01900083
:100788009E0190000002EB0057FF070080017800EF
:1007980001027800600047005001D100C080D300FA
:1007A800640047003008E1002090E10007003100B4
:1007B80061804100E0004A0080027800010378006F
:1007C80005017800860178000200370003017800EF
:1007D800840178002062A800000037006100510001
:1007E800E0805900401188002222A90021E2A800D7
:1007F8002342A80065FF070064FF07000080FA0095
:0408080000000600E6
:0C05B00000FA20000100200000000600FE
:0805BC002000200000000600F1
:1005940028002000A74620000E20ED00FEFF3A00B0
:0C05A4001020ED00FCFF3A0000000600F3
:1004B0000000FA00020AB800500088000200B800EC
:1004C00081004200032AB800810042000080FA0047
:0404D0000000060022
:100400000000FA000200070054020400000000008F
:100410000800E20002003A00100007000000060099
:10042000811F78000200E20002003D006000100021
:10043000E08018000600E20002003D0060011100AB
:10044000E0811900050007004F00E00002003B00BA
:1004500060001000E08018000000060002000700A5
:100460000480BE00000006006022B80006022000E2
:100470000000D0008180D2000482D2008582D200A8
:100480000000A8000202520083825A0003003B00D1
:100490000202420083824A000000A1000603E90034
:1004A000F3FF3A00000006000080FA00000006009A
:0004B0004C
:1004F0000000FA0002000700C6020400000000002D
:100500000800E20002003A001000070000000600A8
:10051000839F68000200E20002003D0060001000BE
:10052000E08018000600E20002003D0060011100BA
:10053000E0811900050007004F00E00002003B00C9
:1005400060001000E0801800000006006022B80083
:10055000060220000000D0008180D2000482D20078
:100560008582D2000000A8000202520083825A0055
:1005700003003B000202420083824A000000A10007
:100580000603E900F3FF3A00000006000080FA00CD
:040590000000060061
:1005C4000000FA000220EF001A4078006004E10005
:1005D4000A0032008A1F78000085FB00BCFF070078
:1005E4004F05780061C04000804078000080FB0027
:1005F4000000450010407800F4FF37000080FA0046
:0406040000000600EC
:1004D4000000FA002302AF0001003700FDFF3700DF
:0C04E4002A1188000080FA0000000600C9
:1008B40001802000C04328000D000900B018780012
:0808C400B058780000000600A6
:10087800556E000064650000746500006374000034
:1008880065640000004F0000707000006F6E00008B
:10089800656E000074200000646500007465000047
:0C08A800637400006564000000000000A4
:0200000401F009
:200000000F000000FFFF000003000000E2000000BD0000005F000000FF0000008300000050
:00000001FF
